:100000000C9496040C94E8040C94E8040C94E80412
:100010000C94E8040C94E8040C94E8040C94E804B0
:100020000C94E8040C94E8040C9461170C94CE171B
:100030000C94E8040C94E8040C94E8040C94E80490
:100040000C94E8040C94E8040C94E8040C94E80480
:100050000C94E8040C94E8040C94E8040C94011A41
:100060000C94E8040C94E8040C94E8040C94E80460
:100070000C94E8040C94E8040C94E8040C94E80450
:100080000C94E8040C94E8040C94E8040C94E80440
:100090000C94E8040C94E8040C94E8040C94E80430
:1000A0000C94E8040C94E8040C94E804036EDB362A
:1000B0003D9A9999993DABAAAA2A3E000000803F3B
:1000C000084AD73B3BCE016E84BCBFFDC12F3D6CBF
:1000D00074319ABD56833DDA3D00C77F11BED9E425
:1000E000BB4C3E916BAAAABE000000803F07634252
:1000F00036B79BD8A71A39685618AEBAAB558C1DBF
:100100003CB7CC5763BD6DEDFD753EF6177231BF40
:10011000000000803F072C7AA5BA6CC590DA3B93AB
:1001200065FC8BBC53F810FD3C5692834DBD879DFA
:100130003AB63DCBC9BF5BBE73DA0FC93F05A84CC9
:10014000CDB2D44EB93836A9020C50B99186880880
:100150003CA6AAAA2ABE000000803F08000000BEFC
:10016000922449123EABAAAA2ABECDCCCC4C3E006A
:10017000000080BEABAAAAAA3E00000000BF00009B
:1001800000803F0000000000084178D3BB4387D1C6
:10019000133D190E3CC3BD4282AD2B3E68EC827606
:1001A000BED98FE1A93E4C80EFFFBE01C4FF7F3F67
:1001B0000000000000028988083CABAAAA2A3E0081
:1001C0000000803F028988083EABAAAAAABE0000B0
:1001D00000803F0664EC1B3C04BC163E3BE5B93C8A
:1001E000C93C37C29E5A3D660498083EEA69AAAAED
:1001F0003E000000803F6E616E00696E66004E41F9
:100200004E494E495459494E46CDCCCC3D0AD72390
:100210003C17B7D13877CC2B329595E6241FB14FD8
:100220000A000020410000C84200401C4620BCBE1D
:100230004CCA1B0E5AAEC59D7400407A10F35A008A
:10024000A0724E18090010A5D4E80000E8764817FF
:100250000000E40B54020000CA9A3B000000E1F5E4
:1002600005000080969800000040420F000000A0AA
:100270008601000000102700000000E803000000D5
:10028000006400000000000A0000000000010000FF
:100290000000002C76D888DC674F0823DFC1DFAE72
:1002A00059E1B1B796E5E3E453C63AE6519976963B
:1002B000E8E6C28426EB898C9B62ED407C6FFCEF04
:1002C000BC9C9F40F2BAA56FA5F490055A2AF75C32
:1002D000936B6CF9676DC11BFCE0E40D47FEF520E4
:1002E000E6B500D0ED902E030094357705008084AC
:1002F0001E080000204E0A000000C80C33333333C0
:100300000F986E12831141EF8D2114893BE655162B
:10031000CFFEE6DB18D1844B381BF77C1D901DA463
:10032000BBE424203284725E228100C9F124ECA156
:10033000E53D2700000000250028002B002E00319D
:100340000000000000240027002A002D00300008D3
:100350000B00020202010009040000010202000079
:1003600005240010010524010101042402060524CE
:100370000600010705810310004009040100020A7C
:10038000000000070502024000000705830240004C
:10039000000403090412010002EF02014041233668
:1003A0008000010102030141726475696E6F204C87
:1003B0004C430041726475696E6F204C656F6E61CD
:1003C00072646F0000000000007CDAF2DA7C7CD6F8
:1003D000F2D67C387C3E7C38183C7E3C1838EABE2D
:1003E000EA38387AFE7A3800183C1800FFE7C3E78D
:1003F000FF0018241800FFE7DBE7FF0C125C6070B9
:1004000064949E946402FEA0A0E002FEA0A4FC5AA4
:100410003CE73C5AFE7C3838101038387CFE2844C3
:10042000FE4428FAFA00FAFA6090FE80FE00669117
:10043000A95606060606062945FF452910207E20F6
:100440001008047E0408101054381010385410108E
:10045000780808080830783078300C1C7C1C0C6058
:10046000707C706000000000000000FA000000E0F6
:1004700000E00028FE28FE282454FE5448C4C8107A
:1004800026466C926A040A0010E0C00000384482DC
:100490000000824438005438FE385410107C10108C
:1004A00000010E0C001010101010000006060004D1
:1004B000081020407C8A92A27C0042FE02004E92EC
:1004C000929262848292B2CC182848FE08E4A2A2DA
:1004D000A29C3C5292928C82848890E06C92929280
:1004E0006C6292929478000028000000022C0000B8
:1004F00000102844822828282828008244281040F8
:10050000809A90607C82BA9A723E4888483EFE92F9
:1005100092926C7C82828244FE8282827CFE9292E3
:100520009282FE909090807C82828ACEFE10101083
:10053000FE0082FE8200040282FC80FE10284482BB
:10054000FE02020202FE403840FEFE201008FE7C41
:100550008282827CFE909090607C828A847AFE9077
:10056000989462649292924CC080FE80C0FC020219
:1005700002FCF8040204F8FC021C02FCC628102845
:10058000C6C0201E20C0869A92B2C200FE8282821D
:10059000402010080400828282FE20408040200219
:1005A0000202020200C0E01000042A2A1E02FE1409
:1005B00022221C1C222222141C222214FE1C2A2A63
:1005C0002A1800107E9040182525391EFE10202084
:1005D0001E0022BE0200040202BC00FE081422001B
:1005E0000082FE02003E201E201E3E1020201E1C07
:1005F0002222221C3F18242418182424183F3E10BD
:10060000202010122A2A2A242020FC22243C020224
:10061000043E38040204383C020C023C2214081444
:1006200022320909093E22262A322200106C820059
:100630000000EE000000826C100040804020403C32
:1006400064C4643C78858586485C0202045E1C2A8A
:100650002AAA9A84AAAA9E82842A2A1E8284AA2A64
:100660001E02042AAA9E0230784A4E489CAAAAAAD0
:100670009A9C2A2A2A9A9CAA2A2A1A0000A23E8216
:100680000040A2BE420080A23E020F9424940F0FAD
:1006900014A4140F3E2AAAA200042A2A3E2A3E507D
:1006A00090FE924C9292924C4C1212124C4C52125E
:1006B000120C5C8282845E5C4202041E00B9050555
:1006C000BE9C2222229CBC020202BC3C24FF2424A9
:1006D000127E92C266D4F43FF4D4FF90946F040368
:1006E000117E90C0042A2A9E82000022BE820C1233
:1006F00012524C1C0202445E005E50504EBEB09836
:100700008CBE649494F41464949494640C12B202B5
:10071000041C10101010101010101CF40813355D7C
:10072000F408142C5F0000DE000010285428444414
:10073000285428105500AA005555AA55AA55AA555F
:10074000AA55AA000000FF00080808FF0028282872
:10075000FF000808FF00FF08080F080F2828283F9F
:10076000002828EF00FF0000FF00FF28282F203F6F
:100770002828E808F80808F808F8282828F80008C1
:1007800008080F00000000F808080808F808080822
:10079000080F08000000FF080808080808080808F3
:1007A000FF08000000FF280000FF00FF0000F8081D
:1007B000E800003F202F2828E808E828282F202FCD
:1007C0000000FF00EF28282828282828EF00EF281D
:1007D0002828E8280808F808F82828282F280808D2
:1007E0000F080F0000F808F8000000F828000000CB
:1007F0003F2800000F080F0808FF08FF282828FFDF
:1008000028080808F8000000000F08FFFFFFFFFF9E
:100810000F0F0F0F0FFFFFFF0000000000FFFFF0A2
:10082000F0F0F0F01C22221C223E54547C287E4022
:10083000406060407E407E40C6AA9282C61C222252
:100840003C20027E04780460407E404099A5E7A5E4
:10085000993854925438324E804E320C52B2B20C07
:100860000C121E120C3D465A62BC7C929292007E83
:100870008080807E54545454542222FA2222028AC8
:100880005222020222528A020000FF80C00701FFAA
:1008900000001010D6D6106C486C246C60F090F0FC
:1008A00060000018180000000808000C02FF80809B
:1008B00000F88080780098B8E848003C3C3C3C0058
:1008C0000000002300260029002C002F000404044F
:1008D00004040304050202020204030202020206E7
:1008E00006060606060404020202040404080201C5
:1008F0001040804010204080408008020401804069
:100900002010020110801020404020000000020052
:10091000090F0000030401000C00000000000000AB
:1009200000000000000000000000961D11241FBE02
:10093000CFEFDAE0DEBFCDBF04B603FE27C0809163
:10094000700790917107A0917207B091730787307B
:10095000904BA740B04BD1F41092700710927107E2
:10096000109272071092730714BE84B7877F84BFFA
:100970000FB6F894A895809160008861809360001C
:10098000109260000FBEE0E0F8E3099527E0A2EEC8
:10099000B5E001C01D92A037B207E1F715E0A0E075
:1009A000B1E0E4EDF8E502C005900D92A23EB1077A
:1009B000D9F714E0C6E9D4E004C02197FE010E94F3
:1009C000BD2BC539D107C9F70E94D51D0C949A21BA
:1009D0000C940000FC0180910206882309F13FB7C6
:1009E000F89482E08093E9002091F200822F90E059
:1009F000222311F081E090E0882339F0289844E622
:100A0000409301064091F1004083222339F0209168
:100A1000F200211103C02BE62093E8003FBF0895A8
:100A20008FEF9FEF08952FB7F89483E08093E9004C
:100A30009091E800892F807295FF04C09091F20098
:100A400080E4891B2FBF08958091F90581110DC0A5
:100A500082E08093F50584E08093F6051092F80516
:100A60001092F70581E08093F90585EF95E00895F0
:100A70004091EF055091F0052091ED053091EE0584
:100A800042175307B4F49091E8009570E1F3909108
:100A9000E80092FD19C08093F1008091EF059091DC
:100AA000F00501968F739927892B19F48EEF8093A7
:100AB000E8008091EF059091F00501969093F00584
:100AC0008093EF0581E0089580E00895EF92FF9212
:100AD0000F931F93CF93DF93F82E192FE62E042F39
:100AE00081E0860F880F0E94380583E00E94380558
:100AF000CF2DD12FEC0EFD2EF11CCE15DF05B9F058
:100B000007FF13C0FE0184910E943805182F80E072
:100B10000E943805812321968111EFCFDF91CF917B
:100B20001F910F91FF90EF9008958881EDCF81E0A4
:100B3000F5CFCF92DF92FF920F931F93CF93DF9366
:100B4000F82E8A01EB016B01C40ED51ECC15DD0514
:100B500059F0F7FE12C0FE0184910E9438052196DB
:100B60008111F4CF0FEF1FEFC801DF91CF911F91DB
:100B70000F91FF90DF90CF9008958881EECF0F9373
:100B80001F93CF93DF930F92CDB7DEB782E08983B7
:100B900042E450E06FE473E080E80E9499050E940F
:100BA0002405DC0112960D911C910115110589F0A7
:100BB000D801ED91FC910280F381E02DBE016F5FC1
:100BC0007F4FC801099597FD04C0F8010085118584
:100BD000ECCF89810F90DF91CF911F910F910895F4
:100BE000615030F02091F100FC012193CF01F8CF4A
:100BF000289884E680930106089590910406891749
:100C000010F48093040680910306841710F4409337
:100C1000030680910606681710F46093060680911B
:100C20000506821710F4209305060895FF920F938E
:100C30001F93CF93DF93D82F8B01C0E0D801ED91A4
:100C40008D01EE2361F1B0E8DB9F9001112485E076
:100C5000E802F0011124EC53FC4F95E09C0F8C2F1F
:100C6000245F3E4F4491D901A80FB11D4C938F5F73
:100C700031968913F7CFFF24F394FD0E2F2D220F09
:100C8000220F220F4AE04C0F68EF620F0E94FD0511
:100C9000CA5FCA3710F0DF2DC0E0D43078F2DF91A0
:100CA000CF911F910F91FF900895CF93DF930F92F3
:100CB000CDB7DEB7DC016983ED91FC910280F38151
:100CC000E02D41E050E0BE016F5F7F4F09950F902E
:100CD000DF91CF91089583E08093E9008091F20045
:100CE000882319F08AE38093E80008950E94130591
:100CF00090E00895CF93DF930F92CDB7DEB7FC015C
:100D00008485958597FD08C02FEF3FEF35872487B1
:100D10000F90DF91CF910895CE0101960E94EA04D1
:100D2000019719F4898190E0F3CF8FEF9FEFF0CF17
:100D30000F931F93CF93DF930F92CDB7DEB78C0144
:100D4000FC018485958597FF0BC0CE0101960E941A
:100D5000EA04019771F4898190E0F801958784870E
:100D6000F801848595850F90DF91CF911F910F91A8
:100D700008958FEF9FEFF1CFFC018485958597FD56
:100D80000BC09FB7F89482E08093E9008091F20055
:100D90009FBF90E0019608959FB7F89482E08093FA
:100DA000E9008091F2009FBF90E0089581508F305C
:100DB000C0F5E82FF0E0EA5EF34D0C94BD2B809176
:100DC00080008F77809380000895809180008F7DD0
:100DD000F9CF80918000877FF5CF84B58F7784BD70
:100DE000089584B58F7DFBCF809190008F7780939D
:100DF00090000895809190008F7DF9CF80919000B0
:100E0000877FF5CF8091C0008F778093C0000895D1
:100E10008091C0008F7DF9CF8091C200877F809341
:100E2000C20008951F93CF93DF93162F282F30E031
:100E3000F901E55FF64F8491F901E451F74FD49140
:100E4000F901E353F74FC491CC23A1F081110E9423
:100E5000D606EC2FF0E0EE0FFF1FED5CFC4FA591E6
:100E6000B4918FB7F894EC91111108C0D095DE239E
:100E7000DC938FBFDF91CF911F910895DE2BF8CFC8
:100E8000CF93C82F60E0809168070E941207CEBD03
:100E900000000DB407FEFDCF8EB5CF910895BF922F
:100EA000CF92DF92EF92FF920F931F93CF93DF9336
:100EB00009ED14E0C8E0D0E0809106068C171D060D
:100EC0000CF042C020910506CE010897281719069C
:100ED0000CF441C0F8018081806B0E944007F090C3
:100EE0000406E090030681E08F0D8F700E9440079A
:100EF0008F2D90E0019624E0959587952A95E1F74E
:100F00008F7080610E94400780EE0E944007CE01F2
:100F100034E0880F991F3A95E1F79C0124573F4F21
:100F20006901EF1488F0F601EF0DF11DB08061E06A
:100F3000809168070E941207BEBC00000DB407FE36
:100F4000FDCF8EB5F394EDCF28960F5F1F4FC834B9
:100F5000D10509F0B1CF8FE7809304061092030604
:100F60008FE18093060610920506DF91CF911F91C5
:100F70000F91FF90EF90DF90CF90BF900895CF93A7
:100F8000DF9390E0FC01E451F74F24918353974F96
:100F9000FC0184918823D1F090E0880F991FFC0117
:100FA000EF5BFC4FA591B491FC01ED5CFC4FC5914A
:100FB000D49161110EC09FB7F8948C91E22FE09507
:100FC0008E238C932881E223E8839FBFDF91CF910A
:100FD00008958FB7F894EC91E22BEC938FBFF6CF86
:100FE000789484B5826084BD84B5816084BD85B504
:100FF000826085BD85B5816085BDEEE6F0E08081CB
:1010000081608083E1E8F0E01082808182608083EB
:10101000808181608083E0E8F0E08081816080836E
:10102000E1E9F0E08081826080838081816080835B
:10103000E0E9F0E0808181608083E1ECF0E0808194
:1010400084608083808182608083808181608083EE
:10105000E3ECF0E0808181608083E0ECF0E080816F
:1010600082608083E2ECF0E0808181608083EAE747
:10107000F0E08081846080838081826080838081D1
:101080008E7F80838081806880830895CF93DF93F3
:1010900000D000D0CDB7DEB73FB7F8948091E70518
:1010A0009091E805A091E905B091EA0526B5A89BC5
:1010B00005C02F3F19F00196A11DB11D3FBFBA2FEA
:1010C000A92F982F8827820F911DA11DB11D9C016A
:1010D000AD0163E0220F331F441F551F6A95D1F7FE
:1010E000CA01B9010F900F900F900F90DF91CF912F
:1010F00008958F929F92AF92BF92CF92DF92EF921C
:10110000FF92CF93DF9300D000D0CDB7DEB74B0175
:101110005C010E9446086B017C010E944608DC01CC
:10112000CB018C199D09AE09BF09883E9340A105EA
:10113000B10598F321E0821A9108A108B10888EE60
:10114000C80E83E0D81EE11CF11C81149104A10497
:10115000B10419F70F900F900F900F90DF91CF917E
:10116000FF90EF90DF90CF90BF90AF909F908F90C7
:1011700008958F929F92AF92BF92CF92DF92EF929B
:10118000FF920F931F93CF93DF937C018B01EA01B2
:1011900080910B01882309F465C0809102068823A1
:1011A00009F460C08091F30580FF05C08091E000E4
:1011B00082608093E0006E01B12C8AEFA82E93E04C
:1011C000892E2AE3922EC114D10419F4BB2009F40C
:1011D00042C00E94130581110BC0AA94AA2009F4F1
:1011E00041C061E070E080E090E00E947908EBCFC0
:1011F0008C151D0411F00CF08C2D9FB7F894809283
:10120000E9002091E80025FD02C09FBFDCCF282F18
:1012100030E0C21AD30A502F412F815040F0E52F01
:10122000F42F41914093F1005E2F4F2FF6CF020F24
:10123000131FBB2021F09092E800B12CE6CF8091E3
:10124000E80085FDE2CF9092E800BB24B394C1147E
:10125000D104D9F2F2CF5D9884E68093F4051C1690
:101260001D063CF081E090E0F70193838283D0E09B
:10127000C0E0CE01DF91CF911F910F91FF90EF90D1
:10128000DF90CF90BF90AF909F908F9008952F9256
:101290003F924F925F926F927F928F929F92AF9206
:1012A000BF92CF92DF92EF92FF920F931F93CF9353
:1012B000DF93CDB7DEB760970FB6F894DEBF0FBEF1
:1012C000CDBF8E879F872E853F852115310599F0EB
:1012D000D901ED91FC91CF018F719927E4FD10C0E8
:1012E0009F0128713327232B09F059C0009709F477
:1012F0004CC0019719F160E070E080EC9FE724C0DA
:1013000040970897C0F7AE85BF8512960D90BC91A7
:10131000A02DBA83A983CF0188719927892B09F45D
:1013200040C2E770FF273197E730F10508F039C276
:10133000EB5DF34DAE85BF850C94BD2BEE85FF852F
:10134000628173818481958169837A838B839C8395
:1013500069817A818B819C8160960FB6F894DEBF9B
:101360000FBECDBFDF91CF911F910F91FF90EF90F6
:10137000DF90CF90BF90AF909F908F907F906F90B5
:101380005F904F903F902F900895AE85BF85129645
:10139000ED91FC916081718182819381D5CFAE8581
:1013A000BF8512968D909C90E770FF273197E730AC
:1013B000F10530F4E45DF34DAE85BF850C94BD2B93
:1013C000F40160960FB6F894DEBF0FBECDBFDF917B
:1013D000CF911F910F91FF90EF90DF90CF90BF9032
:1013E000AF909F908F907F906F905F904F903F90C5
:1013F0002F90099416968D919C910E9447096983BC
:101400007A838B839C8369817A818B819C81F401AF
:1014100060960FB6F894DEBF0FBECDBFDF91CF91BF
:101420001F910F91FF90EF90DF90CF90BF90AF9002
:101430009F908F907F906F905F904F903F902F90F4
:10144000099418968D919C910E9447097B018C010B
:10145000EE85FF85868197810E9447099701A80143
:1014600069837A838B839C8369817A818B819C8158
:10147000F40160960FB6F894DEBF0FBECDBFDF91CA
:10148000CF911F910F91FF90EF90DF90CF90BF9081
:10149000AF909F908F907F906F905F904F903F9014
:1014A0002F9009941A968D919C910E9447097B0177
:1014B0008C01EE85FF85808591850E9447095B013F
:1014C0006C01AE85BF8516968D919C910E9447094F
:1014D000E982FA820B831C83E980FA800B811C81EC
:1014E0009501A60169837A838B839C8369817A81C4
:1014F0008B819C81F401099527CF1C968D919C913D
:101500000E944709362E79838D83292EEE85FF852B
:10151000828593850E9447097B018C01AE85BF853A
:1015200018968D919C910E9447092B013C01EE85F4
:10153000FF85868197810E944709A32CB980CD80C1
:10154000D22CE982FA820B831C83E980FA800B811A
:101550001C819201A30169837A838B839C836981B7
:101560007A818B819C81F4010995EECE1E968D9136
:101570009C910E944709A62E472E382E292EEE85D3
:10158000FF85848595850E944709562E79838D8332
:101590009E83AE85BF851A968D919C910E944709C6
:1015A0007B018C01EE85FF85808591850E9447092E
:1015B0003B018F839887AE85BF8516968D919C9150
:1015C0000E9447092F923F924F92AF92A52CB9806B
:1015D000CD80DE80E982FA820B831C83E980FA8069
:1015E0000B811C8193014F81588569837A838B839A
:1015F0009C8369817A818B819C81F40109950F908C
:101600000F900F900F90A0CE50968D919C910E94BC
:101610004709562E472E382E292EEE85FF858685C2
:1016200097850E944709B62EA72E782E692EAE8583
:10163000BF851C968D919C910E94470969837D838B
:101640007C01EE85FF85828593850E9447098B0189
:101650008E839F83AE85BF8518968D919C910E9445
:101660004709688779878A879B87EE85FF8586810A
:1016700097810E9447092F923F924F925F926F92FB
:101680007F92AF92BF92A980BD80670109831A83C0
:10169000FE81FB832F812C83E980FA800B811C81E2
:1016A000288539854A855B8569837A838B839C830A
:1016B00069817A818B819C81F40109950FB6F89438
:1016C000DEBF0FBECDBF40CE52968D919C910E9441
:1016D0004709562E472E382E292EEE85FF85808904
:1016E00091890E944709B62EA72E782E692EAE85C5
:1016F000BF851E968D919C910E944709F62EE72E7C
:10170000D82EC92EEE85FF85848595850E944709D0
:101710008B0189839D83AE85BF851A968D919C919F
:101720000E9447096E837F8388879987EE85FF85AE
:10173000808591850E9447096A877B878C879D8772
:10174000AE85BF8516968D919C910E9447092F9278
:101750003F924F925F926F927F92AF92BF92CF92E1
:10176000DF92EF92FF925801C980DD80BE81B9837C
:10177000EF81EA83F885FB8329852C83E980FA8051
:101780000B811C812A853B854C855D8569837A8325
:101790008B839C8369817A818B819C81F40109957B
:1017A0008DCFEE85FF8586819781E981FA816096EC
:1017B0000FB6F894DEBF0FBECDBFDF91CF911F9162
:1017C0000F91FF90EF90DF90CF90BF90AF909F90E0
:1017D0008F907F906F905F904F903F902F900994E3
:1017E00016968D919C910E944709462F572FBC0158
:1017F000EE85FF8580859185E981FA8160960FB637
:10180000F894DEBF0FBECDBFDF91CF911F910F9136
:10181000FF90EF90DF90CF90BF90AF909F908F9010
:101820007F906F905F904F903F902F900994189603
:101830008D919C910E9447096B017C01EE85FF858B
:10184000868197810E94470986019701462F572F6D
:10185000BC01AE85BF851A968D919C91E981FA8174
:10186000099572CD1A968D919C910E9447093B0172
:101870008C01EE85FF85808591850E9447094B018B
:101880005C01AE85BF8516968D919C910E9447099B
:101890006301780184019501462F572FBC01EE8525
:1018A000FF8584859585E981FA8109954DCD1C9642
:1018B0008D919C910E9447097B016C01EE85FF850B
:1018C000828593850E9447091B018C01AE85BF85E7
:1018D00018968D919C910E9447092B013C01EE8541
:1018E000FF85868197810E94470947015601610162
:1018F000780182019301462F572FBC01AE85BF8529
:101900001E968D919C91E981FA8109951DCD1E96B7
:101910008D919C910E944709862E472E382E292EA4
:10192000EE85FF85848595850E944709D62EE72E92
:10193000F82EC92EAE85BF851A968D919C910E9476
:1019400047096D837E83182F092FEE85FF858085DB
:1019500091850E944709562E672E782E9F83AE856B
:10196000BF8516968D919C910E944709B62FA72F8F
:1019700088879987EE85FF85808991892F923F928C
:101980004F928F928D2C9E2CAF2CBC2CCD80DE8064
:10199000E12EF02E052D162D272D3F814B2F5A2F8E
:1019A00068857985E981FA81099529CE50968D91CE
:1019B0009C910E944709562E472E382E292EEE85DF
:1019C000FF85868597850E944709962E872E782E5B
:1019D000692EAE85BF851C968D919C910E9447090A
:1019E0007B016C01EE85FF85828593850E94470906
:1019F0006D837E838C01AE85BF8518968D919C91F9
:101A00000E9447096F83788789879A87EE85FF85CB
:101A1000868197810E944709B62FA72F8B879C87C5
:101A2000EE85FF85828993892F923F924F925F9234
:101A30006F927F928F929F9247015601CD80DE80F8
:101A400078010F81188529853A854B2F5A2F6B8590
:101A50007C85E981FA81099531CE52968D919C91D0
:101A60000E944709D62EC72EB82EA92EEE85FF85D7
:101A7000808991890E944709162F072FF82EE92E99
:101A8000AE85BF851E968D919C910E9447093B01B2
:101A90004C01EE85FF85848595850E944709562E69
:101AA000472E382E292EAE85BF851A968D919C9192
:101AB0000E9447096D837E838F839887EE85FF851B
:101AC000808591850E94470969877A878B879C87E3
:101AD000AE85BF8516968D919C910E9447096D87B2
:101AE000788BAE85BF855496ED91FC91AF92BF92F5
:101AF000CF92DF92EF92FF920F931F939F928F925C
:101B00007F926F92852C942CA32CB22CCD80DE80FA
:101B1000EF80F88409851A852B853C854D85588989
:101B2000BC01CF01E981FA810995C8CDCF93DF933C
:101B300000D000D0CDB7DEB729833A834B835C83D6
:101B400069817A818B819C810F900F900F900F900B
:101B5000DF91CF910895CF93DF9300D000D0CDB720
:101B6000DEB769837A838B839C8369817A818B81D9
:101B70009C810E94DE2569837A838B839C836981A3
:101B80007A818B819C810F900F900F900F90DF9145
:101B9000CF910895CF93DF9300D000D0CDB7DEB7BB
:101BA00069837A838B839C8369817A818B819C8111
:101BB0000E94DD2569837A838B839C8369817A8186
:101BC0008B819C810F900F900F900F90DF91CF91A0
:101BD0000895CF93DF9300D000D0CDB7DEB76983EF
:101BE0007A838B839C8369817A818B819C810E941B
:101BF000A02369837A838B839C8369817A818B811B
:101C00009C810F900F900F900F90DF91CF910895CE
:101C1000CF93DF9300D000D0CDB7DEB769837A834E
:101C20008B839C8369817A818B819C810E940A27A6
:101C300069837A838B839C8369817A818B819C8180
:101C40000F900F900F900F90DF91CF910895CF9349
:101C5000DF9300D000D0CDB7DEB7DC01CB01B058A8
:101C6000BC01CD010F900F900F900F90DF91CF919D
:101C700008954F925F926F927F928F929F92AF9250
:101C8000BF92CF92DF92EF92FF920F93CF93DF93A9
:101C9000CDB7DEB764970FB6F894DEBF0FBECDBFE9
:101CA0004B015C0169017A0120E030E0A901698300
:101CB0009A828B83BC8269817A818B819C810E940C
:101CC0003A2387FD04C120E030E0A901C982DA820D
:101CD000EB82FC8269817A818B819C810E943A230C
:101CE00087FDF5C09601A70189829A82AB82BC82EA
:101CF00069817A818B819C810E943A2387FDE7C0AC
:101D000020E03FEF4FE757E469817A818B819C8126
:101D10000E942B2918160CF4DFC020E03FEF4FE79C
:101D200057E4C982DA82EB82FC8269817A818B81F5
:101D30009C810E942B2918160CF4CEC089829A82AD
:101D4000AB82BC8269817A818B819C810E94B6279B
:101D500069837A838B839C8389819A812C01712C7E
:101D6000612CC982DA82EB82FC8269817A818B8163
:101D70009C810E94B62769837A838B839C83A98187
:101D8000BA816D01F12CE12CD301C201B695A79562
:101D9000979587958C159D05AE05BF0540F4D30139
:101DA000C2018C199D09AE09BF096C017D0181E05A
:101DB00090E0A0E0B0E089879A87AB87BC87812C50
:101DC000912C54018394D301C2018C199D09AE0951
:101DD000BF09898B9A8BAB8BBC8BC814D904EA04DE
:101DE000FB0420F569857A858B859C850E943F23BD
:101DF00069837A838B839C8369817A818B819C81BF
:101E000064960FB6F894DEBF0FBECDBFDF91CF91C1
:101E10000F91FF90EF90DF90CF90BF90AF909F9089
:101E20008F907F906F905F904F90089549885A8867
:101E30006B887C88480C591C6A1C7B1C1D861E867E
:101E40001F86188A69857A858B859C85A3019201F6
:101E50000E94C32B00E20E94F02B29833A834B831C
:101E60005C836D837E838F83988789819A81AB8120
:101E7000BC81892B8A2B8B2B41F081E090E0A0E084
:101E8000B0E08D879E87AF87B88B8D859E85AF85A7
:101E9000B889892B8A2B8B2BF9F4A30192016985D0
:101EA0007A858B859C850E94772B69837A838B83C7
:101EB0009C83A50194010E949B2B29873A874B871D
:101EC0005C879FEF891A990AA90AB90A86CF60E050
:101ED00070E080EC9FE78CCF60E070E080E8FACFA4
:101EE0008F929F92AF92BF92CF92DF92EF92FF922A
:101EF0000F93CF93DF93CDB7DEB760970FB6F8940B
:101F0000DEBF0FBECDBF6B017C0120E030E0A90138
:101F10006983DA828B83FC8269817A818B819C81DF
:101F20000E943A2387FD93C020E03FEF4FE757E43C
:101F300069817A818B819C810E942B2918160CF46F
:101F40008BC069817A818B819C810E94B6276983CD
:101F50007A838B839C8381E090E0A0E0B0E0898766
:101F60009A87AB87BC878D879E87AF87B88BA981FF
:101F7000BA816D01F12CE12C89859A85AB85BC85F0
:101F8000C816D906EA06FB0600F56D857E858F85A5
:101F900098890E943F2369837A838B839C8369811C
:101FA0007A818B819C8160960FB6F894DEBF0FBE5C
:101FB000CDBFDF91CF910F91FF90EF90DF90CF9049
:101FC000BF90AF909F908F900895812C912C5401D9
:101FD00069857A858B859C852D853E854F855889B9
:101FE0000E94C32B00E20E94F02B29833A834B838B
:101FF0005C836D837E838F83988789819A81AB818F
:10200000BC81892B8A2B8B2B21F0812C912C5401A4
:10201000839489288A288B28F9F42D853E854F855D
:10202000588969857A858B859C850E94772B6D8779
:102030007E878F87988B89859A85AB85BC8501962D
:10204000A11DB11D89879A87AB87BC8795CF60E0BA
:1020500070E080EC9FE79FCF60E070E080E8FACF0F
:10206000CF92DF92EF92FF920F931F93CF93DF9364
:1020700000D000D000D0CDB7DEB789014E835D839C
:1020800069837A838B839C8369817A818B819C812C
:102090000E94390E6B017C0109831A838E818B8328
:1020A0008D818C8369817A818B819C810E94700FE4
:1020B0009B01AC01C982DA82EB82FC8269817A8160
:1020C0008B819C810E94A02369837A838B839C836C
:1020D00069817A818B819C8126960FB6F894DEBF48
:1020E0000FBECDBFDF91CF911F910F91FF90EF9069
:1020F000DF90CF90089564E578EF8DE290E4089545
:102100006BED7FE089E490E408958F929F92AF9207
:10211000BF92CF92DF92EF92FF920F931F93CF93D4
:10212000DF93B62E07E010E0A12CC82FD0E0CE013F
:10213000855F964F7C01FE01E451F74F6F01C35359
:10214000D74F61E08B2D0E941207F7018491F601B1
:102150009490FE018490882061F181110E94D6063E
:10216000E82DF0E0EE0FFF1FE154F74FA591B49179
:102170008C91982231E009F430E0832F002E01C0C9
:10218000880F0A94EAF7A82A60E08B2D0E941207B4
:1021900001501109B0F68A2DDF91CF911F910F9157
:1021A000FF90EF90DF90CF90BF90AF909F908F9077
:1021B000089580E0E3CFEF92FF920F931F93CF93A8
:1021C000DF93082F162FC7E0D0E0E42EF12CB701E3
:1021D0000C2E02C0759567950A94E2F76170802F06
:1021E0000E94120761E0812F0E94120760E0812F98
:1021F0000E941207219758F7DF91CF911F910F91FD
:10220000FF90EF900895DF92EF92FF920F931F934C
:10221000CF93DF9310E000E0DD24D394EE24E39429
:10222000F12CC0915D07D0915E0761E08B810E9427
:10223000120760E089810E941207A701002E01C0E9
:10224000440F0A94EAF769818A810E94DB1060E0FA
:1022500088810E94120761E088810E941207C09164
:102260005B07D0915C0761E088810E94120760E003
:102270008A810E94120761E08A810E9412076881A8
:1022800089810E948510882319F160915F07709100
:10229000600750E040E0282F30E0C901042E02C062
:1022A000959587950A94E2F780FF0DC0942F8827B3
:1022B000802B912B8617970729F0909360078093C6
:1022C0005F0710C0D12C4F5F5F4F4830510529F791
:1022D0000F5F1F4F0830110509F0A3CF87E097E08B
:1022E000D110EBCFDF91CF911F910F91FF90EF9025
:1022F000DF900895E82F87FD1DC06032D8F4862F47
:1023000086958695869520E8829FC0011124E80F66
:10231000F92FF11DE45FFE4F70E0609570956770D6
:10232000772721E030E001C0220F6A95EAF780812B
:10233000822B80830895ECE0F1E080E092E0DF0101
:102340009C011D9221503040E1F72FE14FE760E002
:1023500080E00C94FD059F92AF92BF92CF92DF92E6
:10236000EF92FF920F931F93CF93DF930E949B11E5
:1023700067E076E080E00E94160680910707909162
:10238000080765E170E00E94872BC62FD8E0D60FC2
:1023900046E0489F9001499F300D1124122FED2EE9
:1023A000F12C6B01DD24EC14FD0439F0BD2ED617A1
:1023B00010F4B62ECD2FD22F03C0B22EC22F162F5F
:1023C0002D2F4B2D612F8C2F0E94FD059B2C9C1ACD
:1023D0002D2F211B330BC90137FF03C09195819528
:1023E0009109082FA92CA6941D1798F0DFEFBC16B1
:1023F00090F06C2F812FEC14FD0411F4612F8C2FC1
:102400000E947A11A01AA7FE02C01D0FA90CCF5F6F
:10241000EECFD1E0ECCF8091EC058823B1F06EE1F6
:1024200088E70E947A116FE188E70E947A116EE1D5
:1024300089E70E947A116FE189E70E947A1120E210
:102440004AE76EE188E70E94FD05DF91CF911F9179
:102450000F91FF90EF90DF90CF90BF90AF909F9043
:102460000C944F072F923F924F925F926F927F9200
:102470008F929F92AF92BF92CF92DF92EF92FF9294
:102480000F931F93CF93DF93CDB7DEB728970FB687
:10249000F894DEBF0FBECDBF8B839C8388E190E0B4
:1024A000AB81BC8115969C938E9314971296BA8338
:1024B000A98330E2232E312CEB81FC81C280D380B2
:1024C000D6018C9181111DC08AE190E095838483AF
:1024D00028960FB6F894DEBF0FBECDBFDF91CF9127
:1024E0001F910F91FF90EF90DF90CF90BF90AF9032
:1024F0009F908F907F906F905F904F903F902F9024
:10250000089590ED980F9A3010F08E32E1F46981C1
:102510007A81C6010E945C206D837E838F839887B9
:10252000EB81FC8166837783808791874EE150E061
:1025300055834483AB81BC8114968D919C914897BF
:1025400009F4BACFC5CF81568A3108F0B8C0EB8103
:10255000FC8142805380D2018C919FE9980F9A317F
:1025600008F463C090ED980F9A3008F45EC08F3580
:1025700009F45BC04C185D0804851585011511052B
:1025800009F473C0E684F784E114F10409F057C03C
:1025900026E1622E712C5301AE18BF08B594A794A2
:1025A000AE0CBF1C850193E0000F111F9A95E1F757
:1025B0000E5E1C4FD8018D909C90A201B401C60103
:1025C0000E949B259C01892B09F052C0F401E40D67
:1025D000F51D8081E82FFF27E1950CF4F0959F0110
:1025E000811146C00115110509F44DC0D80114969A
:1025F0008D919C919C012F71332784FD4CC0AC01BF
:1026000048715527452B09F055C0232B09F092CF6F
:102610004FE150E0EB81FC8155834483D801129651
:102620008D919C919783868385CF5FEF451A550ADC
:10263000AB81BC8113965C924E92129788CFF801C1
:10264000A080B180A201B501C6010E949B25892B03
:1026500031F4F501E40DF51D8081882339F2085F1E
:102660001F4FF1E0EF1AF1088FCFF12CE12C90CF42
:10267000121613065CF47501FFEFEF1AFF0A6E14D1
:102680007F040CF088CFE9E1F0E077C0350141E04C
:10269000641A7108F4CF205131092830310508F04F
:1026A00049CFF80126813781AB81BC811B963C93D1
:1026B0002E931A97EB81FC8195838483AFCFC6015B
:1026C0000196EB81FC8193838283EC91E033ACF43F
:1026D000E0322CF4EB306CF4E930ACF22BCFE0526A
:1026E000E03188F60E2E000CFF0BED5CF34D0C94E0
:1026F000BD2BED3009F41ECFC6CFEE3521F6AB81F0
:10270000BC8115963C922E921497EEEFF9E225C00B
:10271000EB81FC81358224828BEA9DE083CFAB8103
:10272000BC8115963C922E9214978AEC9DE01796E8
:102730009C938E931697FECEEB81FC81358224828A
:1027400049EE5DE057834683F5CEAB81BC8115969B
:102750003C922E921497E8E0FEE01796FC93EE93DD
:102760001697E8CEAB81BC8115963C922E921497B9
:10277000E7E0F8E2F2CFECE1F0E0AB81BC81159646
:10278000FC93EE931497D6CEEDE1F0E0F6CFEBE1BB
:10279000F0E0F3CFCF93DF93EC01009739F00E9484
:1027A000D913CE01DF91CF910C94FA24DF91CF9110
:1027B0000895CF93DF93EC01892B51F1E881F981E2
:1027C000EF71FF273997EF30F10510F5ED5BF34D11
:1027D0000C94BD2B8A899B890E94CA138889998988
:1027E0000E94CA138E859F850E94CA138C859D8581
:1027F0000E94CA138A859B850E94CA138885998581
:102800000E94CA138E819F81DF91CF910C94CA13CD
:10281000DF91CF910895AF92BF92CF92DF92EF9266
:10282000FF920F931F93CF93DF93EC0188819981DF
:102830008230910558F185FF29C08C01087111275C
:102840000115110519F08C01077011276E0186E042
:10285000C80ED11CF12CE12CAA24A394B12CE016B3
:10286000F106F9F4AB2891F0CE010E9447097B01F3
:102870008C01CE010E94D91381E090E09983888376
:10288000A701B8014A835B836C837D83DF91CF917D
:102890001F910F91FF90EF90DF90CF90BF90AF907E
:1028A0000895F601819191916F010E940B14F60138
:1028B00032970190F081E02D80819181019711F094
:1028C000B12CA12CFFEFEF1AFF0AC9CF8F929F9274
:1028D000AF92BF92CF92DF92EF92FF920F931F932E
:1028E000CF93DF937C016B015C0188E1A822BB24BC
:1028F000A114B10421F05701E7E0AE22BB24450149
:10290000880C991CE70193E0D595C7959A95E1F756
:10291000C270DD272696C80DD91DCE010E94612404
:102920008C01AE0170E060E00E949425AB2849F074
:10293000C114D10431F0A401B601C80106960E9469
:102940008B25F801F182E08213821282C801DF91A7
:10295000CF911F910F91FF90EF90DF90CF90BF909C
:10296000AF909F908F900895AF92BF92CF92DF92D9
:10297000EF92FF920F931F93CF93DF93EC018C8123
:102980009D81FC01EF71FF273897E831F10508F0D0
:10299000C8C0EE5AF34D0C94BD2B70E060E081E0AE
:1029A00090E00E9466148C018E819F81A885B98574
:1029B000F80182839383A483B583CE010E943212EF
:1029C000C801DF91CF911F910F91FF90EF90DF90A1
:1029D000CF90BF90AF90089570E060E090E080E00D
:1029E0000E9466148C018E819F81F80193838283FB
:1029F000E4CF70E060E00E9466148C018E819F81BC
:102A0000F801938382838C8184FF04C08A859B852F
:102A100097838683CE010E9432128C819D814C97D0
:102A200079F6CE010E9432128C819D814D9709F07A
:102A300067C0C3CF70E060E00E9466148C018E8195
:102A40009F81F801938382838C8184FF04C08A85EF
:102A50009B8591878087CE010E943212CE010E9411
:102A6000A615F80197838683ABCF7C01F8E1EF22AE
:102A7000FF24E114F10421F07C0127E0E222FF248D
:102A800070E060E00E9466148C018E819F81F801E5
:102A9000938382838C8184FF0AC0F7013396EE0F03
:102AA000FF1FE00FF11F8A859B8591838083CE01F4
:102AB0000E9432128C819D814C9711F55801F6E0ED
:102AC000AF0EB11CD12CC12CCE14DF0471F0CE019D
:102AD0000E943212CE010E947516F50181939193E6
:102AE0005F018C819D814B9781F08C819D814D97F9
:102AF00039F421E0E21AF108EC14FD0409F45DCF89
:102B000089E190E09D838C835BCFFFEFCF1ADF0AD2
:102B1000DBCFCE010E943212CE010E94BA168C0188
:102B200083CF70E060E090E080E00E9466148C014A
:102B300089E190E09D838C8380E090E0A0ECBFE78A
:102B4000F80182839383A483B5833ACFEF92FF92F7
:102B50000F931F93CF93DF9300D0CDB7DEB78C01D7
:102B6000EE24E394F12CF80184819581809789F01B
:102B7000EA94EF28F1F4C8010E94B414FC01CF01DB
:102B80000F900F90DF91CF911F910F91FF90EF90D9
:102B9000089586819781FDE08B3A9F0731F08A5C2A
:102BA0009D4031F7F194E194F108C8010E9432127E
:102BB000DACFC8010E94B4149A838983BE016F5F83
:102BC0007F4F89E290E00E946614FC0187E29EE05C
:102BD00093838283D4CFCF92DF92EF92FF920F93B1
:102BE0001F93CF93DF9300D000D0CDB7DEB77C0129
:102BF0000E94A6158C01F70184819581809739F494
:102C0000C680D780FEEFCF16F9E2DF0671F0C8016B
:102C10000F900F900F900F90DF91CF911F910F9118
:102C2000FF90EF90DF90CF900895C7010E9432127D
:102C30001A830983C7010E94A6159C838B83BE015A
:102C40006F5F7F4F8AE290E00E9466148C01FC0166
:102C5000D382C282D0CFCF92DF92EF92FF920F93B6
:102C60001F93CF93DF9300D000D0CDB7DEB77C01A8
:102C70000E94EB158C01F70184819581809789F47E
:102C8000C680D780F9EECF16FDE0DF06C1F088E000
:102C9000C8168EE0D80699F0E7E0CE16E8E2DE0628
:102CA00071F0C8010F900F900F900F90DF91CF91AE
:102CB0001F910F91FF90EF90DF90CF900895C70183
:102CC0000E9432121A830983C7010E94EB159C836C
:102CD0008B83BE016F5F7F4F8AE290E00E94661493
:102CE0008C01FC01D382C282C6CFCF92DF92EF92D9
:102CF000FF920F931F93CF93DF9300D000D0CDB7F7
:102D0000DEB77C010E942B168C01F701848195812E
:102D1000809761F4C680D780FBEACF16FDE0DF061E
:102D200099F08AECC8168DE0D80671F0C8010F90B2
:102D30000F900F900F90DF91CF911F910F91FF9007
:102D4000EF90DF90CF900895C7010E9432121A834E
:102D50000983C7010E942B169C838B83BE016F5F82
:102D60007F4F8AE290E00E9466148C01FC01D382BE
:102D7000C282CBCFCF92DF92EF92FF920F931F933D
:102D8000CF93DF9300D000D0CDB7DEB77C010E9497
:102D900075168C0186E9C82E8DE0D82EF701848146
:102DA00095814B9771F0C8010F900F900F900F9085
:102DB000DF91CF911F910F91FF90EF90DF90CF9017
:102DC0000895C7010E9432121A830983C7010E9425
:102DD00075169C838B83BE016F5F7F4F8AE290E004
:102DE0000E9466148C01FC01D382C282D7CFCF929D
:102DF000DF92EF92FF920F931F93CF93DF93CDB7A4
:102E0000DEB764970FB6F894DEBF0FBECDBF7C016E
:102E100087E096E09C838B839A8389831E861D8638
:102E2000188A1F86CE0101960E943212CE010196A9
:102E30000E94BA168C018D819E814A97D1F0C801FB
:102E40000E94CA138B819C8129813A81821B930B3A
:102E5000F70191838083892B39F0C12CD12C80EC30
:102E6000E82E9FE7F92E16C081E090E091838083E1
:102E7000F4CFC8010E940B14F701118210820115D2
:102E8000110559F3C8010E9447096B017C01C80173
:102E90000E94CA13C98ADA8AEB8AFC8A69897A890C
:102EA0008B899C8964960FB6F894DEBF0FBECDBFA8
:102EB000DF91CF911F910F91FF90EF90DF90CF9016
:102EC00008951F921FB61F9211248F939F93809194
:102ED000E1009091E100937F9093E10083FF0FC0A8
:102EE0001092E90091E09093EB001092EC0092E3D5
:102EF0009093ED001092020698E09093F00082FF0C
:102F000022C093E09093E9009091F200992319F088
:102F10009AE39093E8009091F405992341F0909101
:102F2000F40591509093F405911101C05D9A909130
:102F30000106992341F0909101069150909301066A
:102F4000911101C0289A84FF17C08091E2008E7E03
:102F500081608093E2008091E1008F7E8093E100A8
:102F60008091F3058E7E80618093F3059F918F9110
:102F70001F901FBE1F90189580FFF8CF8091E20030
:102F80008E7E80618093E2008091E1008E7E80934E
:102F9000E1008091F3058E7E8160E6CF1F920F9253
:102FA0000FB60F921124CF92DF92EF92FF920F9300
:102FB0001F932F933F934F935F936F937F938F93C1
:102FC0009F93AF93BF93EF93FF93CF93DF93CDB7CF
:102FD000DEB76C97DEBFCDBF1092E9008091E800AC
:102FE00083FF21C068E0CE0145960E94F00582EF84
:102FF0008093E8008D8987FF35C09091E80090FFAD
:10300000FCCF982F907609F035C19E89911131C07F
:10301000803861F58091F2058093F1001092F10003
:103020008EEF8093E8006C960FB6F894DEBF0FBE6B
:10303000CDBFDF91CF91FF91EF91BF91AF919F9164
:103040008F917F916F915F914F913F912F911F9140
:103050000F91FF90EF90DF90CF900F900FBE0F90E9
:103060001F9018959EEF9093E800CBCF1092F1003F
:10307000D5CF2F89388D913059F48111D1CF21309E
:10308000310571F68091F2058D7F8093F205C8CFEE
:10309000933049F48111C4CF2130310509F6809174
:1030A000F2058260F2CF953049F48091E80080FF0C
:1030B000FCCF8F8980688093E300B2CF963009F00F
:1030C000AAC0F88C0B8D1C8D22E01092E9001092A2
:1030D000F0051092EF05F2122EC01092EE0510923C
:1030E000ED050E94BF051F8299E09983FA8291E065
:1030F0009E8390EA98879AEF99872091EF05309107
:10310000F005275F3F4F3C832B838D831092E900AE
:103110001092F0051092EF051093EE050093ED0567
:1031200049E050E0BE016F5F7F4F80E00E9499054B
:103130000E94BF0575CF1093EE050093ED050E9428
:103140002405DC0112960D911C910115110509F45D
:1031500052C1D801ED91FC910480F581E02DBE01B2
:103160006B5E7F4FC8010995009709F03FC1F801D8
:1031700000851185EACFF3E0FF120EC08F89882306
:1031800009F440C0823061F440E860E183EB93E0F1
:103190000E946605811144CF81E28093EB0043CF0A
:1031A000813029F440E86BE087EA93E0F1CF833087
:1031B00099F70E942405DC011296ED90FC908E0197
:1031C0000F5F1F4F6801E114F10479F0D701ED9111
:1031D000FC910680F781E02DB801C7010995080F21
:1031E000111DF701E084F184EECFD8011C92F601A5
:1031F00001900020E9F73197BF016C197D0940E08B
:10320000C601C6CF61E973E0FB01449150E080E85C
:103210000E94990505CF973009F4BECF983021F46C
:1032200081E08093F100FCCE993009F0F9CE8370F3
:1032300009F0B2CFE3EDF4E081E031E096E32191D3
:10324000211109C08EE78093EA001092EA008F896D
:1032500080930206E5CE8093E9003093EB00DF0116
:1032600011972C912093EC009093ED008F5F8730A5
:1032700031F7E8CF8B8D9C8D1092E9001092F0050C
:103280001092EF059093EE058093ED05898D8111E5
:1032900092C08E899D89913A49F4813209F07CCFA0
:1032A00047E050E064E071E080E0B2CF913209F095
:1032B00073CF833269F48F89988DB0E0A0E080935A
:1032C000000190930101A0930201B0930301A8CEE5
:1032D000803269F48091E80082FFFCCF67E084E0EF
:1032E00091E00E94F0058BEF8093E80099CE823246
:1032F00009F096CE8F8980930B01EEEFFFE7859161
:1033000094918B3F9C4D51F5EEEFFAE080910401D2
:1033100090910501A0910601B0910701803B944076
:10332000A105B105F1F480910B0180FD1AC0EE3FBB
:103330008AE0F80789F587E797E791838083809192
:1033400060008093F10588E19BE00FB6F894A895A2
:10335000809360000FBE9093600062CEE0E0F8E0E2
:10336000D5CF808191818737974709F059CEA895AD
:10337000809160008861809360008091F105809366
:103380006000EE3F2AE0F20789F08091FE0A9091FA
:10339000FF0A9183808344CE80819181873798078B
:1033A00051F29093FF0A8093FE0AC5CF1092FF0A54
:1033B0001092FE0A35CE0E942405DC0112960D9172
:1033C0001C910115110509F4E7CED801ED91FC918E
:1033D0000190F081E02DBE016B5E7F4FC801099521
:1033E00081111ECEF80100851185EBCF1816190644
:1033F0000CF416CED1CEF1E0FF12BDCE65E973E03C
:1034000003CF1F921FB61F9211242F933F938F93C8
:103410009F93AF93BF938091E3059091E405A091B2
:10342000E505B091E6053091E20526E0230F2D3742
:1034300050F50296A11DB11D2093E2058093E3058E
:103440009093E405A093E505B093E6058091E70528
:103450009091E805A091E905B091EA050196A11DBA
:10346000B11D8093E7059093E805A093E905B0931B
:10347000EA05BF91AF919F918F913F912F911F903E
:103480001FBE1F90189529E8230F0396A11DB11D9B
:10349000D3CFAFE0B0E0EFE4FAE10C94312B6C0154
:1034A0001B014A01FC0117821682838181FF34C30C
:1034B0009E012F5F3F4F3901F6019381F10193FD8A
:1034C000859193FF81911F01882309F4D6C285322B
:1034D00039F493FD859193FF81911F01853239F471
:1034E000B60190E00E94AC2254014501E5CFF12CD9
:1034F000512C00E0003238F48B3209F190F4803224
:10350000F9F0833209F107FD34C020ED280F2A308D
:1035100020F506FF1BC0FAE0FF9E200D1124F22EBD
:1035200005C08D3279F0803371F70160F10193FDB0
:10353000859193FF81911F018111DCCF1AC0026038
:103540000460F4CF0860F2CF0061F0CF3AE0539E00
:10355000200D1124522E0062E9CF8E3221F406FD97
:103560008CC20064E3CF8C3611F40068DFCF88365C
:10357000E9F29BEB980F933008F05CC00061805E2D
:1035800006FD02C046E0F42E102F1F73853609F0A9
:1035900058C0106417FF5EC08F2D9BE39F1508F481
:1035A0008BE344244394480E27E0F4016191719128
:1035B000819191915F01042DA3010E949D214C01F5
:1035C000F981FC87F0FF03C00DE2F3FF07C00BE2B7
:1035D00011FD04C0012F047012FD00E22C852C7037
:1035E000E22E09F457C001119AC2F3E0E12CF5155F
:1035F000A0F483E0E52CE81A13FD08C0B60180E2D0
:1036000090E00E94AC22EA94E110F8CF002329F068
:10361000B601802F90E00E94AC223C8526EF822EDE
:1036200021E0922E33FD04C09AEF892E91E0992E6D
:10363000107122C09BE9980F933008F034C10F7EBF
:103640009FCF863611F41068A5CFFF2009F4A2CFD2
:10365000FA94A0CFE7E02F2DEF1518F427E037E01C
:10366000F32E412CA2CF11118052B60190E00E949E
:10367000AC228FEF881A980AF40184918111F3CF5C
:10368000EE2009F432CFB60180E290E00E94AC2235
:10369000EA94F6CF17FF70C0480CFC85F4FF04C015
:1036A0008A81813309F44A9414140CF087C028E00D
:1036B000241510F488E0482E85E090E017FF06C03E
:1036C000C40197FE02C090E080E0019601110196CE
:1036D000FF2031F02F2D30E02F5F3F4F820F931FDF
:1036E0005816190619F014F0E52CE81A812F897084
:1036F00011F4E11068C0002329F0B601802F90E09A
:103700000E94AC2213FD02C0E11064C017FF7DC00F
:10371000840197FE02C010E000E0C4018419910901
:103720002C016F2D70E0EE27FF27E61BF70BFF87BC
:10373000EE87801691060CF454C0401651060CF02A
:1037400050C0F401E01BF10BE60DF71D8181015023
:1037500011092E853F85021713070CF444C0B601EA
:1037600090E00E94AC220F3F100719F7B6018EE2DD
:1037700090E00E94AC22DDCF16FD9ECFEF2DF0E051
:10378000E815F90534F03CEF83163FEF93060CF093
:1037900010683296E60DF71D01C0FA94FF2019F06B
:1037A00082918033D1F317FF87CF442443944F0C89
:1037B000F814190431F02CF0F8187ECF4424439407
:1037C0007BCFF12C79CFB60180E290E00E94AC2251
:1037D000EA948FCFB60180E390E00E94AC22EA9495
:1037E00093CF80E3B4CF8016910641F49A8196334B
:1037F00050F4953319F49C8594FF05C0B60190E010
:103800000E94AC223DCF81E3F9CF8A81813319F048
:10381000EC85EF7EEC87B60190E00E94AC22FF20A1
:10382000A9F0B6018EE290E00E94AC22F394F394EA
:10383000E2E001E00E0FE60DF72DF11D8081B601EB
:1038400090E00E94AC22E02F0F11F3CF85E690E0CC
:1038500014FF02C085E490E0B6010E94AC2297FC00
:1038600006C081149104C1F4FC85F4FF15C0919445
:10387000819491088DE2B60190E00E94AC2280E331
:103880003AE08316910454F4B60190E00E94AC2211
:10389000B601C401C096B4CF8BE2EDCF8F5F2AE0B2
:1038A000821A9108EDCF8336B1F0833759F1833511
:1038B00009F055C0F401819091905F016F2D70E087
:1038C00006FD02C06FEF7FEFC4010E9496229D8724
:1038D0008C8700680DC0540182E0A80EB11CF40171
:1038E0008081898321E030E03D872C8743010F7779
:1038F00003FD06C02C853D855216130609F090F491
:10390000E52C28C0F401819091905F016F2D70E04B
:1039100006FD02C06FEF7FEFC4010E94A1229D87C8
:103920008C87E5CFB60180E290E00E94AC225A94E9
:10393000E1CFF40107FD859107FF81914F01B601A9
:1039400090E00E94AC22E110EA948C859D8501975D
:103950009D878C87EC85FD85EF2B59F791CE8436BA
:1039600019F0893609F06EC0F40107FF63C0619158
:103970007191819191915F01102F1F7697FF08C07F
:1039800090958095709561957F4F8F4F9F4F1068F0
:103990002AE030E0A3010E94DC22882E8618982CB1
:1039A000012F16FF0AC00E7F8F1438F414FF04C0D5
:1039B00012FD02C0012F0E7E9F2C04FF85C0FE0168
:1039C000E80DF11D8081803309F077C0097EF02F6A
:1039D000F870EF2E03FD87C000FF81C0F82C95140E
:1039E00010F4F50CF91804FF84C0B60180E390E0F0
:1039F0000E94AC2202FF09C088E790E001FF02C0EC
:103A000088E590E0B6010E94AC228F1408F47DC0D6
:103A10008A94082D10E00F5F1F4F060D171DF80147
:103A200082918F01B60190E00E94AC220615170525
:103A3000B1F726CE619171915F01072E000C880BC2
:103A4000990B9ACF102F853791F41F7E2AE030E032
:103A5000F40117FF2CC061917191819191915F01E7
:103A6000A3010E94DC22882E86181F7798CF197F29
:103A70008F36D1F048F4883591F0F6018681978130
:103A80002F96E2E10C944D2B803739F08837A9F757
:103A900014FD146020E130E0DBCF1061F9CF04FDAC
:103AA000166020E132E0D4CF28E030E0D1CF619140
:103AB00071915F0190E080E0D3CF02FD02C093944A
:103AC00086CF9394939483CF802F867809F47FCF09
:103AD000F6CFB60180E290E00E94AC229394951458
:103AE000C0F3E12C80CFE52CE918951408F47BCFC6
:103AF000F8CF802F867809F488CF8BE201FF80E22F
:103B000007FD8DE2B60190E07ECFB60180E390E044
:103B10000E94AC22FA9479CF8FEF9FEFB1CF24E0CF
:103B2000E12C251508F074CD84E064CDCF93DF93AC
:103B3000EBE0F7E01382128288EE93E0A0E0B0E0C1
:103B400084839583A683B78385EE94E091838083F5
:103B50008FEF9FEF95878487E8E6F7E089E0808321
:103B60008BE08183A5E6B7E085E08C938AE011962F
:103B70008C93119786E012968C931297E1E6F7E00A
:103B80008CE0808388E081838DE0828384E083837E
:103B9000CBE5D7E0B983A883FB83EA8387E097E08E
:103BA0009D838C83DF91CF910895CDB7DEB7C55447
:103BB000D1090FB6F894DEBF0FBECDBF0E94F0074B
:103BC000109202061092F2051092F3058091D70030
:103BD00081608093D70080EA8093D80089B58F7E7A
:103BE00089BD89B5826089BD09B400FEFDCF61E061
:103BF00070E080E090E00E9479088091D8008F7C8E
:103C000080618093D8008091E000807F8093E00005
:103C10008091E1008E7E8093E1008DE08093E20050
:103C2000559A209A80E880936100109261008FEF8E
:103C30009FEF909318078093170761E080916507C5
:103C40000E94BF0760E0809166070E94BF0761E0A5
:103C5000809167070E94BF0760E0809165070E941E
:103C6000120760E0809167070E94120761E080916F
:103C700061070E94BF0761E0809162070E94BF0751
:103C800061E0809163070E94BF0761E08091640753
:103C90000E94BF0760E0809161070E94120760E008
:103CA000809162070E94120760E0809163070E9482
:103CB000120761E0809168070E94BF0761E0809170
:103CC00069070E94BF071FB7F8948091EB05811127
:103CD00027C0EEEDF8E08491EDEFF8E09491E82F45
:103CE000F0E0EE0FFF1FEF5BFC4FA591B491EC915C
:103CF000E92321F461E081E10E94120761E081E1A2
:103D00000E94BF078CB580618CBD8CB580648CBD72
:103D100061E08FE00E94BF0761E080E10E94BF0781
:103D20008091EB058F5F8093EB051FBF60E0809172
:103D300069070E94120764EF71E080E090E00E9442
:103D4000790861E0809169070E94120782EA0E9467
:103D5000400780EA0E94400780EC0E94400780E410
:103D60000E9440078CE20E94400762E370E080E01E
:103D700090E00E9479088EE20E94400762E370E0C2
:103D800080E090E00E9479088FE20E9440076AE09C
:103D900070E080E090E00E94790881E20E94400794
:103DA0002FE14FE760E080E00E94FD058FEA0E946E
:103DB000400784EA0E94400781E80E94400780E2B1
:103DC0000E9440070E94AB118E010F5F1F4F37E02A
:103DD000232E36E0332EC12CDD24D39458E1452E1A
:103DE00055E0552E63E0662E65E0762E0E940311A5
:103DF0007C014091EC05EF2DFF279701332793E0DD
:103E0000EE0FFF1F9A95E1F7E20FF31FEE0FFF1F72
:103E1000442389F1EE5AFB4F0190F081E02D309759
:103E200009F446C0DF010D900020E9F7CD010197AC
:103E30008E1B9F0B6091090770910A07680F791F0D
:103E40006F3F710509F080F5209107073091080751
:103E50005C01A20EB31E4FEF50E04A155B0570F4F3
:103E6000D901A95FB94F8E0F9F1FE817F907A1F07D
:103E700021912D93FACFEE52FC4FCECF4A01881AF2
:103E8000990AD401A95FB94F8C90DA01A95FB94FA3
:103E90008C9241505109E1CFB0920807A0920707D8
:103EA00070930A07609309071092EC050E94AB110A
:103EB000B3E0EB16B2E0FB0609F4E0C020F5F4E055
:103EC000EF16F1E0FF0609F4EAC080910707909130
:103ED0000807019721E0E21622E0F20609F4D3C0B8
:103EE000E11481E0F80609F4E0C064E170E080E0EC
:103EF00090E00E94790880E090E0892B09F476CF69
:103F00000E94000073CF94E0E91693E0F90609F4EB
:103F100091C0C0F5B4E0EB16B2E0FB0631F70E94A9
:103F20009B1163EF74E081E00E9416060E944F0728
:103F30006AE070E080E090E00E94790881E0809380
:103F4000E00080E28093D8001092C9008FE097E2F1
:103F50000197F1F700C0000087E090EBDC0180934F
:103F6000700790937107A0937207B093730788E16D
:103F70009CE00FB6F894A895809360000FBE9093D4
:103F80006000FFCFE3E0EE1AE7E0FE0AF2E0EF1692
:103F9000F10408F0AACFCE018F5B9F4F0E94F71665
:103FA000F62EE72EB82EA92E0E949B1123968EADD9
:103FB0009FAD2397009701F19F938F937F926F920C
:103FC0001F930F930E94A9250F900F900F900F90B1
:103FD0000F900F90B80180E00E9416060E944F07D4
:103FE0000E94031184309140B9F06AE070E080E0F3
:103FF00090E00E947908F4CFAF92BF92EF92FF92C7
:104000005F924F921F930F930E94A9250FB6F894C9
:10401000DEBF0FBECDBFDECFF101C6011192019709
:10402000E9F7109208071092070710920A071092FA
:10403000090721C080910707909108070097D9F0E0
:10404000AC01415051092091090730910A07FC0148
:10405000E95FF94F8217930720F40196618161931C
:10406000F9CF509308074093070721503109309347
:104070000A07209309070E94AB1137CF80910707E9
:104080009091080701962091090730910A0782173D
:10409000930788F79093080780930707ECCFD10127
:1040A000F6011D923197E9F7BCCF8091EC05F1E064
:1040B0008F278093EC05DFCFB0E0A0E0E2E6F0E2EE
:1040C0000C94372B7C016B016115710519F0FB0114
:1040D00091838083E7010991802F90E00E947522EF
:1040E0005C01892BB1F50D32B1F50881E70122960B
:1040F00011E07E01F1E0EF1AF10843E050E066E0E4
:1041000072E0C7010E947E22892B61F57E0182E068
:10411000E80EF11C45E050E061E072E0C7010E944A
:104120007E22892B21F47E0197E0E90EF11CC11457
:10413000D10419F0F601F182E08260E070E080E8DD
:104140009FE7112309F4F1C060E070E080E89FEF81
:10415000ECC07E01BFCF0B3219F40881E701229633
:1041600010E0C7CF43E050E06EEF71E0C7010E945E
:104170007E22892B61F4C114D10421F02296F6012C
:10418000D183C08360E070E080EC9FE7CEC0F12C6B
:10419000E12C20E030E0A901F0EDF00FFA3058F505
:1041A000E12FE260812F887012FF08C0811103C0E7
:1041B000FFEFEF1AFF0A09911E2FEECF882319F0A7
:1041C00081E0E81AF108A5E0B0E00E94262B9B01EF
:1041D000AC01220F331F441F551F2F0F311D411DEE
:1041E000511D283999E93907490799E1590718F309
:1041F000E12FE660E0CFFE3F29F413FD3AC0E12F46
:10420000E860D9CF0F7D0534A1F588818D3241F466
:104210001061BE016E5F7F4F8981E2E0F0E007C070
:10422000BE018B32B9F36F5F7F4FE1E0F0E0805366
:10423000EB01CE1BDF0B8A30E0F4E0E8AE16ECE0D9
:10424000BE065CF4F501EE0FFF1FEE0FFF1FAE0E72
:10425000BF1EAA0CBB1CA80EB11CEB018991805398
:104260008A3090F114FF03C0B194A194B108EA0C14
:10427000FB1C11FF07C0C114D10421F02197F601E6
:10428000D183C083CA01B9010E943F231370133048
:1042900009F490584B015C0120E030E0A9010E9434
:1042A0003A23882309F43FC0C5E3D2E0F7FE05C0F6
:1042B000F194E194F108CDE1D2E06E01F8E1CF1A7A
:1042C000D10800E210E00FC0BE01B7CFFE0125917A
:1042D000359145915491E01AF10AC501B4010E944B
:1042E000A0234B015C01D501C401E016F10674F76F
:1042F000249715950795CC15DD05A9F78A2F880F0A
:104300008B2F881F8F3F49F020E030E0A901C501C5
:10431000B4010E943A23811106C082E290E090939A
:104320006B0780936A07C501B401CDB7DEB7ECE037
:104330000C94532BF8940C94142C283008F027E09C
:104340003327DA01990F311D87FD916000966105D1
:10435000710539F432602E5F3D9330E32A95E1F721
:1043600008959F3F30F080387105610509F03C5F8A
:104370003C5F3D93913008F08068911DDF93CF93AF
:104380001F930F93FF92EF92192F987F9695E92F25
:1043900096959695E90FFF27ED56FD4F9927332700
:1043A000EE24FF24A701E70105900894079428F460
:1043B000360FE71EF81E491F511D660F771F881F15
:1043C000991F0694A1F70590079428F4E70EF81EAC
:1043D000491F561FC11D770F881F991F661F06941E
:1043E000A1F70590079428F4F80E491F561FC71F20
:1043F000D11D880F991F661F771F0694A1F705909E
:10440000079420F4490F561FC71FD81F990F661F26
:10441000771F881F0694A9F784911095177041F0B3
:10442000D695C79557954795F794E7941A95C1F790
:10443000E9E3F2E0689415901591359165919591B5
:1044400005907FE27395E118F10A430B560BC90BF7
:10445000D009C0F7E10CF11E431F561FC91FD01D24
:104460007EF4703311F48A95E6CFE894015030F071
:10447000080F0AF40027021708F4202F2395022FB3
:104480007A3328F079E37D932A95E9F710C07D937C
:104490002A9589F6069497956795379517951794F9
:1044A000E118F10A430B560BC90BD00998F023957C
:1044B0007E9173957A3308F070E37C932013B8F7FC
:1044C0007E9170617D9330F0839571E37D9370E30D
:1044D0002A95E1F71124EF90FF900F911F91CF9152
:1044E000DF91992787FD9095089591110C940D24E3
:1044F000803219F089508550C8F70895FB01DC011E
:104500004150504088F08D9181341CF08B350CF473
:10451000805E659161341CF06B350CF4605E861B27
:10452000611171F3990B0895881BFCCFFC01059074
:10453000615070400110D8F7809590958E0F9F1FA5
:104540000895FC016150704001900110D8F78095EA
:1045500090958E0F9F1F08950F931F93CF93DF9316
:10456000182F092FEB018B8181FD09C01FEF0FEF81
:10457000812F902FDF91CF911F910F91089582FF8E
:1045800014C02E813F818C819D81281739073CF40E
:10459000E881F981CF0101969983888310838E8108
:1045A0009F8101969F838E83E3CFE885F985812FD4
:1045B0000995892BA1F3DACFFA01AA27283051F106
:1045C000203181F1E8946F936E7F6E5F7F4F8F4F44
:1045D0009F4FAF4FB1E03ED0B4E03CD0670F781FA3
:1045E000891F9A1FA11D680F791F8A1F911DA11D88
:1045F0006A0F711D811D911DA11D20D009F46894C1
:104600003F912AE0269F11243019305D3193DEF668
:10461000CF010895462F4770405D4193B3E00FD01E
:10462000C9F7F6CF462F4F70405D4A3318F0495D09
:1046300031FD4052419302D0A9F7EACFB4E0A695EC
:104640009795879577956795BA95C9F7009761050E
:10465000710508959B01AC010A2E06945795479564
:1046600037952795BA95C9F7620F731F841F951F59
:10467000A01D08950E947C2308F481E00895E89429
:1046800009C097FB3EF490958095709561957F4F9A
:104690008F4F9F4F9923A9F0F92F96E9BB27939548
:1046A000F695879577956795B795F111F8CFFAF458
:1046B000BB0F11F460FF1BC06F5F7F4F8F4F9F4F89
:1046C00016C0882311F096E911C0772321F09EE8E7
:1046D000872F762F05C0662371F096E8862F70E04D
:1046E00060E02AF09A95660F771F881FDAF7880F27
:1046F0009695879597F90895990F0008550FAA0B7D
:10470000E0E8FEEF16161706E807F907C0F01216E4
:104710001306E407F50798F0621B730B840B950BE7
:1047200039F40A2661F0232B242B252B21F408953C
:104730000A2609F4A140A6958FEF811D811D0895D9
:104740000E94B3230C9427240E94192438F00E945D
:10475000202420F0952311F00C9410240C9416249E
:1047600011240C945B240E94382470F3959FC1F3AC
:10477000950F50E0551F629FF001729FBB27F00D0F
:10478000B11D639FAA27F00DB11DAA1F649F662764
:10479000B00DA11D661F829F2227B00DA11D621FB3
:1047A000739FB00DA11D621F839FA00D611D221F6D
:1047B000749F3327A00D611D231F849F600D211D51
:1047C000822F762F6A2F11249F5750409AF0F1F0D4
:1047D00088234AF0EE0FFF1FBB1F661F771F881F3D
:1047E00091505040A9F79E3F510580F00C94102441
:1047F0000C945B245F3FE4F3983ED4F38695779561
:104800006795B795F795E7959F5FC1F7FE2B880FE2
:10481000911D9695879597F908959927882708956A
:1048200097F99F6780E870E060E008959FEF80EC63
:10483000089500240A941616170618060906089506
:1048400000240A9412161306140605060895092E6C
:104850000394000C11F4882352F0BB0F40F4BF2BDB
:1048600011F460FF04C06F5F7F4F8F4F9F4F08951B
:1048700057FD9058440F551F59F05F3F71F0479511
:10488000880F97FB991F61F09F3F79F087950895F6
:10489000121613061406551FF2CF4695F1DF08C015
:1048A000161617061806991FF1CF86957105610532
:1048B00008940895E894BB2766277727CB0197F9DA
:1048C00008950F931F93CF93DF938230910510F4D7
:1048D00082E090E0E0916E07F0916F0730E020E019
:1048E000B0E0A0E0309799F42115310509F447C0F4
:1048F000281B390B24303105C0F58A819B81611555
:10490000710571F1FB0193838283FE0111C0408127
:1049100051810281138148175907F8F04817590748
:1049200099F4109761F012960C93129713961C93BA
:104930003296CF01DF91CF911F910F91089500938F
:104940006E0710936F07F4CF2115310519F0421748
:10495000530718F49A01BD01EF01DF01F801C2CF3E
:1049600090936F0780936E07D0CFFE01E20FF31F85
:10497000819391932250310939832883DACF209192
:104980006C0730916D07232B41F420910E03309179
:104990000F0330936D0720936C0720910C03309127
:1049A0000D032115310541F42DB73EB74091100399
:1049B00050911103241B350BE0916C07F0916D07AA
:1049C000E217F307A0F42E1B3F0B2817390778F0E6
:1049D000AC014E5F5F4F2417350748F04E0F5F1F45
:1049E00050936D0740936C0781939193A2CFF0E0B1
:1049F000E0E09FCFCF93DF930097E9F0FC0132977F
:104A000013821282C0916E07D0916F07DE0130E0F1
:104A100020E02097A1F420813181820F931F209103
:104A20006C0730916D072817390709F067C0F093BC
:104A30006D07E0936C07DF91CF910895DA01AE170F
:104A4000BF0708F040C012964D915C9113979D01ED
:104A50004115510599F7D9011396FC93EE931297DE
:104A60004D915D91A40FB51FEA17FB0779F4808182
:104A700091810296840F951FD90111969C938E9374
:104A80008281938113969C938E931297B0E0A0E05D
:104A90008A819B810097B9F5FE0181919191E80F80
:104AA000F91F80916C0790916D078E179F0719F67B
:104AB000109761F510926F0710926E07D0936D07F3
:104AC000C0936C07B8CFB383A28340815181840F18
:104AD000951FA817B90771F44E5F5F4F8D919C9198
:104AE0001197480F591F5183408312968D919C91C5
:104AF000938382832115310509F0ADCFF0936F07C1
:104B0000E0936E0798CFDE01EC01C2CF13961C92A2
:104B10001E921297D3CFFB01DC0102C001900D92CF
:104B200041505040D8F70895DC0101C06D934150C9
:104B30005040E0F70895FB01DC014150504030F057
:104B40008D910190801919F40020B9F7881B990BF9
:104B50000895AEE0B0E0EFEAF5E20C943F2B0D894A
:104B60001E8986E08C831A8309838FEF9FE79E83DB
:104B70008D83AE01475E5F4F6F89788DCE010196C0
:104B80000E94491A2F813885020F131FF8011082E5
:104B90002E96E4E00C945B2B9F939F770E94502805
:104BA0000F90002042F49058A2EA2AED3FE049E439
:104BB00050E40E94F5250C9427245058BB27AA27BF
:104BC0000E94F5250C9427240E94192438F00E9495
:104BD000202420F039F49F3F19F426F40C94162475
:104BE0000EF4E095E7FB0C941024E92F0E94382482
:104BF00058F3BA17620773078407950720F079F412
:104C0000A6F50C945A240EF4E0950B2EBA2FA02D85
:104C10000B01B90190010C01CA01A0011124FF2769
:104C2000591B99F0593F50F4503E68F11A16F04064
:104C3000A22F232F342F4427585FF3CF4695379563
:104C40002795A795F0405395C9F77EF41F16BA0B28
:104C5000620B730B840BBAF09150A1F0FF0FBB1FD6
:104C6000661F771F881FC2F70EC0BA0F621F731F1F
:104C7000841F48F4879577956795B795F7959E3F7C
:104C800008F0B0CF9395880F08F09927EE0F97950D
:104C9000879508959F939F77EEE389379E0728F4C1
:104CA000ECEAF0E00E94C0280CC00E945028905806
:104CB000A2EA2AED3FE049EC5FE30E94F5250E945D
:104CC00027240F9007FC905808950E94192460F043
:104CD00080E891E009F49EEF0E94202428F040E84B
:104CE00051E071F45EEF0CC00C9416240C945A241D
:104CF000E92FE0780E94382440F3092E052AB1F309
:104D0000261737074807590738F00E2E07F8E02511
:104D100069F0E025E0640AC0EF6307F8009407FA41
:104D2000DB01B9019D01DC01CA01AD01EF930E94D5
:104D300021270E9427240E94A8265F91552339F03D
:104D40002BED3FE049E450FD49EC0C94DE2508953D
:104D5000DF93DD27B92FBF7740E85FE3161617060C
:104D600048075B0718F4D92F0E9430299F938F932F
:104D70007F936F930E94C22AE0ECF0E00E94992892
:104D80000E9427242F913F914F915F910E94B3235E
:104D9000DD2351F09058A2EA2AED3FE049EC5FE3B1
:104DA000D0785D270E94F525DF910C9427240E947E
:104DB000132990F09F3748F4911116F40C945B245A
:104DC00060E070E080E89FE3089526F01B16611D07
:104DD000711D811D0C9470280C948B2890680E9482
:104DE00084274FEF5FEF0E943C299F938F937F931F
:104DF0006F9342E050E00E943C290E9430292F919D
:104E00003F914F915F910C94DE250E94D628E39547
:104E10000C94FF280E941E270C9427240E94202413
:104E200058F00E94192440F029F45F3F29F00C94B7
:104E3000102451110C945B240C9416240E943824E5
:104E400068F39923B1F3552391F3951B550BBB27B9
:104E5000AA2762177307840738F09F5F5F4F220FFE
:104E6000331F441FAA1FA9F335D00E2E3AF0E0E8F5
:104E700032D091505040E695001CCAF72BD0FE2F3F
:104E800029D0660F771F881FBB1F261737074807D3
:104E9000AB07B0E809F0BB0B802DBF01FF2793588B
:104EA0005F4F3AF09E3F510578F00C9410240C941B
:104EB0005B245F3FE4F3983ED4F38695779567953E
:104EC000B795F7959F5FC9F7880F911D96958795C0
:104ED00097F90895E1E0660F771F881FBB1F6217DF
:104EE00073078407BA0720F0621B730B840BBA0B9D
:104EF000EE1F88F7E095089529F416F00C9410241D
:104F00000C945A240C9416240E944024A8F396383A
:104F1000A0F707F80F92E8942BE33AEA48EB5FE733
:104F20000E94B6230F920F920F924DB75EB70F9269
:104F30000E94CA29EDEEF0E00E9499284F915F91FE
:104F4000EF91FF91E595EE1FFF1F49F0FE57E068D6
:104F50004427EE0F441FFA95E1F74195550B0E9447
:104F60003C290F9007FE0C94302908950E9440249C
:104F700088F09F5798F0B92F9927B751B0F0E1F01A
:104F8000660F771F881F991F1AF0BA95C9F714C0CA
:104F9000B13091F00E945A24B1E008950C945A2443
:104FA000672F782F8827B85F39F0B93FCCF3869503
:104FB00077956795B395D9F73EF490958095709560
:104FC00061957F4F8F4F9F4F08950E94132990F056
:104FD0009F3748F4911116F00C945B2460E070E068
:104FE00080E89FEB089526F41B16611D711D811D3D
:104FF0000C9470280C948B280E94192420F019F02E
:105000000E94202450F40C9416240C945B24E92F65
:105010000E94382488F35523B1F3E7FB6217730726
:1050200084079507A8F189F3E92FFF2788232AF041
:105030003197660F771F881FDAF7952F552744237E
:1050400032F091505040220F331F441FD2F7BB273C
:10505000E91BF50B621B730B840BB109B1F222F44F
:10506000620F731F841FB11D31972AF0660F771FDF
:10507000881FBB1FEFCF9150504062F041F0882352
:1050800032F0660F771F881F91505040C1F79395FB
:105090000C948B288695779567959F5FD9F7F7CF06
:1050A000DF93CF931F930F938B01EC01E5E1F1E0C8
:1050B0000E9499280E9427249801AE018B01EC01DF
:1050C00060E070E080E89FE30E94DD250E94822A74
:1050D0009801AE010F911F91CF91DF910C94B323F2
:1050E000882371F4772321F09850872B762F07C0FF
:1050F000662311F499270DC09051862B70E060E073
:105100002AF09A95660F771F881FDAF7880F969511
:10511000879597F908959F3F31F0915020F4879536
:1051200077956795B795880F911D9695879597F90F
:105130000895DF93CF931F930F93FF92EF92DF9227
:105140007B018C01689406C0DA2EEF010E94B32324
:10515000FE01E894A5912591359145915591A6F3CD
:10516000EF010E94F525FE019701A801DA9469F785
:10517000DF90EF90FF900F911F91CF91DF910895F5
:105180009F938F937F936F93FF93EF939B01AC015A
:105190000E94A023EF91FF910E9499282F913F91A7
:1051A0004F915F910C94A0230C9416240E944024EC
:1051B000D8F3E894E0E0BB279F57F0F02AED3FE0FA
:1051C00049EC06C0EE0FBB0F661F771F881F28F043
:1051D000B23A62077307840728F0B25A620B730B66
:1051E000840BE3959A9572F7803830F49A95BB0F4B
:1051F000661F771F881FD2F790480C948D28EF9375
:10520000E0FF07C0A2EA2AED3FE049EC5FEB0E9415
:10521000F5250E9427240F90039401FC9058EDE39C
:10522000F1E00C94C0280E944024A0F0BEE7B9171A
:1052300088F4BB279F3860F41616B11D672F782FAE
:105240008827985FF7CF869577956795B11D9395D9
:105250009639C8F308950E947C2308F48FEF0895CF
:105260009B01AC0160E070E080E89FE30C940A27AA
:105270000C9410240C948B280E944024D8F399237A
:10528000C9F3940F511DA3F39150504094F059F07D
:10529000882332F0660F771F881F91505040C1F766
:1052A0009E3F51052CF7880F911D9695879597F98C
:1052B00008955F3FACF0983E9CF0BB2786957795AC
:1052C0006795B79508F4B1609395C1F7BB0F58F790
:1052D00011F460FFE8CF6F5F7F4F8F4F9F4FE3CF99
:1052E0000C945B240E94822929ED3BE54EED5EE3A0
:1052F0000C94A02316F00C948B280C94162468941C
:105300000C9410240E944024A8F39923C1F3AEF317
:10531000DF93CF931F930F93FF92C92FDD2788232D
:105320002AF02197660F771F881FDAF720E030E018
:1053300040E85FEB9FE3883920F0803E38F021960B
:105340008F770E94DE25EBE5F1E004C00E94DE25A8
:10535000E8E8F1E00E9499288B01BE01EC01FB2EE8
:105360006F5771097595771F880B990B0E94412320
:1053700028E132E741E35FE30E94B323AF2D9801B8
:10538000AE01FF900F911F91CF91DF910E94F52503
:105390000C942724FA01DC01AA0FBB1F9B01AC016E
:1053A000BF5728F4222733274427507820C0B7510D
:1053B00090F4AB2F0024469537952795011CA395B3
:1053C000D2F3002071F0220F331F441FB395DAF39C
:1053D0000ED00C94DD2561307105A0E88A07B9462E
:1053E00030F49B01AC0166277727882790783096A8
:1053F00021F020833183428353830895FA01EE0F15
:10540000FF1F309621053105A1F16115710561F489
:105410008038BFE39B0749F168949038810561F0BB
:105420008038BFEF9B0741F099234AF5FF3FE10524
:105430003105210519F1E8940894E795D901AA23CB
:1054400029F4AB2FBE2FF85FD0F310C0FF5F70F4CC
:10545000A695E0F7F73950F019F0FF3A38F49F7746
:105460009F930DD00F9007FC9058089546F00C9430
:10547000162460E070E080E89FE308954FE79F778F
:105480005F934F933F932F930E9482292F913F91D7
:105490004F915F910E94A0230C9484279F939F7744
:1054A000FEE3803A9F0728F4E5EBF1E00E94C02874
:1054B00017C090680E9484274FEF5FEF0E943C293D
:1054C0009F938F937F936F9342E050E00E943C291B
:1054D0000E9430292F913F914F915F910E94DD25CD
:1054E0000F9007FC906808959F930E94D6280F9014
:1054F00007FCEE5F0C94FF2819F416F40C941624A4
:105500000C948B280E944024B8F39923C9F3B6F376
:105510009F57550B87FF0E941F2B0024A0E640EAEF
:10552000900180585695979528F4805C660F771FF8
:10553000881F20F026173707480730F4621B730BCB
:10554000840B202931294A2BA695179407942025EE
:1055500031254A2758F7660F771F881F20F0261736
:105560003707480730F4620B730B840B200D311D95
:10557000411DA09581F7B901842F9158880F969508
:10558000879508959B01AC010C94A0239F939F776E
:10559000FEE380319F0728F4E4ECF1E00E94C0288C
:1055A00025C0906841E050E00E943C290E94842779
:1055B0009F938F937F936F9320E030E040E85FE309
:1055C0000E94DE252F913F914F915F919F938F9382
:1055D0007F936F9360E070E080E89FE30E94DD2599
:1055E0002F913F914F915F910E940A270F9007FCE6
:1055F00090580895DF93D92F0E94D628E695D79525
:105600002AED3FE049E45FE3B33A6207730784079A
:105610009507D7953AF0A2EA49EC90680E94F525E3
:105620000E942724E3EDF1E00E94C028DD0F13F073
:105630000E943029DD0F0BF49058DF9108959150AE
:105640005040660F771F881FD2F708950E94682B7D
:10565000A59F900DB49F900DA49F800D911D1124C6
:1056600008952F923F924F925F926F927F928F9206
:105670009F92AF92BF92CF92DF92EF92FF920F93E1
:105680001F93CF93DF93CDB7DEB7CA1BDB0B0FB6EB
:10569000F894DEBF0FBECDBF09942A8839884888A8
:1056A0005F846E847D848C849B84AA84B984C8843E
:1056B000DF80EE80FD800C811B81AA81B981CE0F35
:1056C000D11D0FB6F894DEBF0FBECDBFED0108951A
:1056D000A29FB001B39FC001A39F700D811D112433
:1056E000911DB29F700D811D1124911D0895DB0144
:1056F0008F939F930E94262BBF91AF91A29F800D05
:10570000911DA39F900DB29F900D11240895AA1B87
:10571000BB1B51E107C0AA1FBB1FA617B70710F09C
:10572000A61BB70B881F991F5A95A9F780959095CE
:10573000BC01CD010895A1E21A2EAA1BBB1BFD01DD
:105740000DC0AA1FBB1FEE1FFF1FA217B307E40760
:10575000F50720F0A21BB30BE40BF50B661F771FB8
:10576000881F991F1A9469F7609570958095909598
:105770009B01AC01BD01CF010895EE0FFF1F059005
:10578000F491E02D0994E894DF93CF93FC01DB01C1
:105790000E94682B7F936F93E9019A01AC01BF933C
:1057A000AF933F932F93DF010E94682B26F46C1B6D
:1057B0007D0B820B930B9E01EB01FC010E940B2CD5
:1057C000AF91BF912F913F910E940B2CBE01CF0151
:1057D000F9012F913F91CF91DF91089597FD10949A
:1057E000002E083098F00850232F342F452F562FC5
:1057F000672F782F892F912DF4CF15949795879542
:105800007795679557954795379527950A95AAF700
:105810001124002D08950E94682B460F571FC81FA2
:10582000D91F08F431960895F894FFCFED06F106DC
:10583000DF06E506E906110711071107F406FA0667
:10584000FE060207080711070C07F00B170C320CB5
:10585000570C870CD60C2D0DFA09210A520A7D0A25
:10586000B60A040B640B9A124313431343134313F6
:10587000B21343134313BB13C4139C138813C713EE
:105880008F134313A5130214FE13FA13F613F21326
:10589000EE13EA1308140214FE13FA13F613F213AC
:1058A000EE13EA13F9141A15351535153515351596
:1058B00035153515F9141A153515351535153515F0
:1058C0003515351591159115911591158915911568
:0458D000CD14EC14F3
:1058D400FFFFFFFF00E10000000000001F1F1F1F6B
:1058E4001F1F1F1F1F1F1F1F1F0F0707073FFFFF3C
:1058F400FFFFFFFEFFFFFFFFFF3E00000000000070
:10590400000000000000000000000F3F70606060B5
:1059140060307F3F00001F3F706060606039FFFFB0
:1059240000061F3960606060303F7F000060FFFF49
:105934006060007F7F70606040007F7F0000000037
:105944007F7F0000007F7F000060FFFF6060000039
:1059540000000000000000000000000080F8FCFED1
:10596400FEFFFFFFFFFFFFFFEFE7E7E3F3F9FFFFB2
:10597400FFF7071FFFFFFFFFFFFF7FFF7F7F7F7F93
:105984007F7F3F3F1F0F0703000000C0E06020201F
:1059940060E0E0E0000080C0E060206060E0E0E003
:1059A400000080C06060206060E0E0000000E0E093
:1059B400000000E0E0000000000080E06060606043
:1059C400E080000000E0E0000000E0E000000000F3
:1059D40000000000000000000000000000000003C0
:1059E400071F9FFFFFFFFFFFFFFDF1E3E3CFFFFF73
:1059F400FFFFF0FC7F3F3F3F3F7FFFFFFFFFFFFFC5
:105A0400FFFFFFFEFCF0E0800000000C1C00000023
:105A14000000000000000000000000000000000082
:105A240000007F7F00000000000000000000000074
:105A34000000000000000000000707000000000054
:105A440000000000001C0C0000000000000000002A
:105A54000000000000000000000000000007FFFF3D
:105A6400FFFFFFFFFFFFFEFEFEFEFCF8F8F0FEFF67
:105A7400FFFF7F3FFFFFFFFFFFFFFF1F000000004E
:105A84000000000000000000000000FFFF00000014
:105A9400FFFFE0C0C0C0FF7F00001E7FE1C0C0C0A8
:105AA400C061FFFF0000FEFF01000000FFFF0000D7
:105AB40021F9F8DCCCCF0700C0FFFFC08000FFFF56
:105AC400C0C0800000FFFF00001F7FF9C8C8C8C81D
:105AD4007939000071F9D8CCCE470300000074076F
